:100000000C9465000C9482000C9482000C94820085
:100010000C9482000C9482000C9482000C94820058
:100020000C9482000C9482000C9482000C94820048
:100030000C9482000C9482000C9482000C94820038
:100040000C9482000C9482000C9482000C94820028
:100050000C9482000C9482000C9482000C94820018
:100060000C9482000C9482000C9482000C94820008
:100070000C9482000C9482000C9482000C948200F8
:100080000C9482000C9482000C9482000C948200E8
:100090000C9482000C9482000C9482000C948200D8
:1000A0000C9482000C9482000C94820005A84CCD24
:1000B000B2D44EB93836A9020C50B9918688083CA2
:1000C000A6AAAA2ABE000000803F11241FBECFEFBF
:1000D000DAE0DEBFCDBF13E0A0E0B1E0E8E4FBE38F
:1000E00002C005900D92A43CB107D9F718E0A4EC2A
:1000F000B3E001C01D92AF38B107E1F70E940212D0
:100100000C94A21D0C940000189903C020E030E06C
:100110000EC088EE93E020E931E0F9013197F1F764
:100120000197D9F783B1282F30E021703070C901D1
:10013000089583B1869580FD03C020E030E00FC0B4
:1001400088EE93E020E931E0F9013197F1F701976A
:10015000D9F783B18695282F30E021703070C9011E
:1001600008958431910509F442C08E31910529F436
:10017000FAE9E9E979E16EE316C08832910529F4DC
:10018000FDECECEC7CE46EE315C08233910599F153
:100190008C33910521F4FAE9E9E979E92FC0FDEC06
:1001A000ECEC7CE46DE38634910521F4F3E3E3E3C6
:1001B00073EB0DC08035910521F4FDECECEC7CEC8B
:1001C00006C08A35910529F4F6E6E6E676EE6EE39A
:1001D00007C08436910521F4F0E0E0E070E06FE3C1
:1001E0002F2F3E2F472F562FB901CA010895FDEC3E
:1001F000ECEC7CECD7CFF0E0E0E070E86EE3E9CF28
:1002000080917900829586958770282F30E021159E
:10021000310559F480E460E00E94111780E091E01C
:100220000E9404172FE030E056C02130310559F408
:1002300080E460E00E94111784E091E00E940417BE
:100240002AE030E048C02230310559F480E460E013
:100250000E94111788E091E00E94041725E030E029
:100260003AC0C9010397029758F480E460E00E9405
:1002700011178CE091E00E94041720E030E02BC0C1
:100280002530310559F480E460E00E94111780E1C7
:1002900091E00E9404172BEF3FEF1DC0263031057F
:1002A00059F480E460E00E94111784E191E00E941B
:1002B000041726EF3FEF0FC02730310559F480E4D3
:1002C00060E00E94111788E191E00E94041721EF7D
:1002D0003FEF01C00895C9010895BF92CF92DF9208
:1002E000EF92FF920F931F93CF93DF93809172044D
:1002F000909173048AEC93E064E570E00E94FC172F
:10030000EE24FF24BE2C8701000F111F06531C4F43
:10031000F801608171818E2D41E020E00E9413136D
:10032000E114F10409F444C0F8012081318167012E
:100330000894C108D108F601EE0FFF1FE653FC4FE9
:10034000808191818217930784F4C081D18107C095
:100350008B2D6C2F41E020E00E9413132196F801B1
:1003600080819181C817D9079CF3D701AA0FBB1FC1
:10037000A653BC4F2D913C911197F601EE0FFF1F34
:10038000E653FC4F80819181281739078CF4CD9179
:10039000DC918F0107C08B2D6C2F41E020E00E9483
:1003A00013132196F80180819181C817D9079CF316
:1003B0000894E11CF11CF4E5EF16F10409F0A2CF5A
:1003C000C0E0D0E0FE01EE0FFF1FE653FC4F0081BE
:1003D000118181E0E82EF12CEC22FD2216C0C8012B
:1003E00062E070E00E94871CE114F10419F40097A8
:1003F00051F403C08130910531F48C2F602F41E01E
:1004000020E00E9413130F5F1F4F003311053CF3D0
:100410002196C435D105B1F6DF91CF911F910F918F
:10042000FF90EF90DF90CF90BF900895EF92FF92F2
:100430000F931F93CF93DF930E9424178CE160E00A
:100440000E9411178CE191E00E94041788E161E09D
:100450000E94111781E291E00E94041785E162E099
:100460000E94111787E291E00E9404178AE063E07E
:100470000E9411178EE291E00E9404178AE064E066
:100480000E94111788E391E00E940417C0E9D1E0AF
:10049000B1C0FE013197F1F70197D9F788E161E02A
:1004A0000E94111781E291E00E94041780ED97E00D
:1004B000FE013197F1F70197D9F70130110529F4C1
:1004C0000E94241721E030E0A6C081E0E816F10484
:1004D00009F090C00E9484007C010E9499008C0168
:1004E00080E062E00E94111782E491E00E9404170C
:1004F00080ED97E0FE013197F1F70197D9F785E19B
:1005000062E00E94111787E291E00E94041780EDDB
:1005100097E0FE013197F1F70197D9F70130110506
:1005200029F40E94241722E030E075C081E0E8162B
:10053000F10481F60E9484007C010E9499008C01E4
:1005400080E063E00E94111782E491E00E940417AA
:1005500080ED97E0FE013197F1F70197D9F78AE036
:1005600063E00E9411178EE291E00E94041780ED73
:1005700097E0FE013197F1F70197D9F701301105A6
:1005800029F40E94241723E030E045C081E0E816FA
:10059000F10481F60E9484007C010E9499008C0184
:1005A00080E064E00E94111782E491E00E94041749
:1005B00080ED97E0FE013197F1F70197D9F78AE0D6
:1005C00064E00E94111788E391E00E94041780ED17
:1005D00097E0FE013197F1F70197D9F70130110546
:1005E00029F40E94241724E030E015C081E0E816C9
:1005F000F10481F60E9484007C010E9499008C0124
:1006000080E061E00E94111782E491E00E940417EB
:1006100080ED97E03ECFC901DF91CF911F910F91FF
:10062000FF90EF9008950F931F93CF93DF938AE08D
:1006300060E00E9411178FE491E00E94041788E1A6
:1006400061E00E94111789E591E00E94041781E1A1
:1006500062E00E9411178FE591E00E94041781E18A
:1006600063E00E94111787E691E00E9404178EE074
:1006700064E00E9411178FE691E00E94041780E069
:1006800065E00E94111788E791E00E9404170E941C
:1006900084008C010E949900EC010130110559F091
:1006A00080E060E00E941117219721F40E94160259
:1006B000009719F403C081E090E0282F822FDF918A
:1006C000CF911F910F9108952F923F924F925F9279
:1006D0006F927F928F929F92AF92BF92CF92DF9252
:1006E000EF92FF920F931F93DF93CF93CDB7DEB7B7
:1006F000C054D0400FB6F894DEBF0FBECDBF5B0133
:100700006C0149011AAB09AB662757FD6095762F3E
:10071000CB01BA010E94B21A25E33AEF4EE85CE33E
:100720000E949F1B7B018C01C8010E94141A9B012F
:10073000AC01C601B5010E949F1B6DA77EA78FA7C4
:1007400098ABB701C8010E94221C9B01AC01C601F5
:10075000B5010E949F1B69A77AA78BA79CA781144C
:10076000910409F0AAC10F2EF0E0AF2EF0E0BF2EE9
:10077000F0E4CF2EF1E4DF2EF02D0F2EF0E02F2E3F
:10078000F0E03F2EFCE14F2EF2E45F2EF02D80E0F2
:1007900090E0A0E0B0E08DA39EA3AFA3B8A789A38B
:1007A0009AA3ABA3BCA318A21F8E32C06BAE7CAEC3
:1007B0008DAE9EAE6DA17EA18FA198A520E030E008
:1007C00040E251E40E94AB192AE037ED43E25CE3DA
:1007D0000E949F1B6DA37EA38FA398A7C401B301A2
:1007E00029A13AA14BA15CA10E94AC192AE037EDE6
:1007F00043E25CE30E949F1B69A37AA38BA39CA3A3
:100800002BAD3CAD4DAD5EADC901DA013C014D01F2
:10081000A9A9BAA9119761F40E940001AA2797FD1E
:10082000A095BA2FBC01CD010E94B21A3B014C0128
:100830006DA17EA18FA198A52AE037ED43E25CE38C
:100840000E949F1B9B01AC0169A57AA58BA59CA565
:100850000E94AC1969A77AA78BA79CA769A17AA166
:100860008BA19CA12AE037ED43E25CE30E949F1B31
:100870009B01AC016DA57EA58FA598A90E94AC191E
:100880006DA77EA78FA798ABC601B5012DA53EA584
:100890004FA558A90E94AC195B016C01C201B101BE
:1008A00029A53AA54BA55CA50E94AB191B012C01FB
:1008B00020E030E048E252E40E949B1B18168CF4C2
:1008C000C601B5010E947F1A7B018C01CB016AE24F
:1008D00070E041E050E022E030E00E946914C7017E
:1008E000C6C1C601B50120E030E046EA52E40E94EC
:1008F0009B1B18160CF490C5C601B50120E030E032
:1009000040E050E00E94101A88230CF485C5C20113
:10091000B10120E030E040E050E00E94101A88234E
:1009200054F4EF8DF8A1EF2B31F40E94F31221E083
:1009300030E038A32F8FC201B10120E030E040E069
:1009400050E00E949B1B18160CF030CFC601B50179
:1009500020E030E048EA52E40E94101A88230CF0AC
:1009600025CF89A99AA9019729F06BAE7CAE8DAEEF
:100970009EAE0EC00E940001AA2797FDA095BA2F37
:10098000BC01CD010E94B21A6BAF7CAF8DAF9EAFA0
:10099000C601B5010E947F1A7B018C018B01C20147
:1009A000B1010E947F1A9B01AC0121967FAF6EAF0F
:1009B0002197C701B90141E050E00E941D15A9A986
:1009C000BAA9119771F40E940001AA2797FDA0957A
:1009D000BA2FBC01CD010E94B21A6BAF7CAF8DAFB4
:1009E0009EAFC601B50120E030E048E852E40E9425
:1009F0009B1B18160CF0DECEC601B50120E030E0DE
:100A000044E952E40E94101A88230CF0D3CEC201AC
:100A1000B10120E030E048E152E40E949B1B18162F
:100A20000CF0C8CEC201B10120E030E04CE252E44B
:100A30000E94101A88230CF0BDCEC80121966EAD1D
:100A40007FAD219740E050E00E941D15C8016AE289
:100A500070E041E050E020E030E00E946914C801FD
:100A60006AE270E040E050E020E030E00E9469146B
:100A700000E010E0F4E0EF2EE8E0FE2E70E9C72E73
:100A800071E0D72E82E060E00E94111785E891E0C6
:100A90000E94041785B18E2585B985B18F2585B94A
:100AA00080ED97E0F6013197F1F70197D9F70F5FE5
:100AB0001F4F0431110531F763C6B1E08B16910465
:100AC00009F009C280E090E0AEE8B2E48093C6018C
:100AD0009093C701A093C801B093C9010F2EF0E015
:100AE000AF2EF0E0BF2EFCE1CF2EF2E4DF2EF02D92
:100AF00080E090E0A0E0B0E08F8B988FA98FBA8F54
:100B00001C012D0121961FAE1EAE21972EC06FAA8B
:100B100078AE89AE9AAE6F89788D898D9A8D20E0F6
:100B200030E040E251E40E94AB192AE037ED43E2A5
:100B30005CE30E949F1B6F8B788F898F9A8FC40113
:100B4000B301A20191010E94AC192AE037ED43E202
:100B50005CE30E949F1B1B012C012FA938AD49ADFE
:100B60005AADC901DA013C014D01A9A9BAA91197F1
:100B700061F40E940001AA2797FDA095BA2FBC013D
:100B8000CD010E94B21A3B014C016F89788D898D8D
:100B90009A8D2AE037ED43E25CE30E949F1B9B01A4
:100BA000AC0169A57AA58BA59CA50E94AC1969A783
:100BB0007AA78BA79CA7C201B1012AE037ED43E2D7
:100BC0005CE30E949F1B9B01AC016DA57EA58FA5D8
:100BD00098A90E94AB196DA77EA78FA798AB6091CB
:100BE000C6017091C7018091C8019091C9012DA5DE
:100BF0003EA54FA558A90E94AB196093C6017093FA
:100C0000C7018093C8019093C901C601B50129A508
:100C10003AA54BA55CA50E94AB195B016C0120E0D5
:100C200030E048E252E40E949B1B18164CF560919C
:100C3000C6017091C7018091C8019091C9010E94BD
:100C40007F1ADC01CB016AE270E041E050E022E073
:100C500030E00E9469146091C6017091C7018091D3
:100C6000C8019091C9010E947F1ADC01CB016AE2A0
:100C700070E040E050E022E030E00E94691452C48D
:100C80006091C6017091C7018091C8019091C9011E
:100C900020E030E040E050E00E94101A87FD10C0D4
:100CA0006091C6017091C7018091C8019091C901FE
:100CB00020E030E046EA52E40E949B1B18167CF4C8
:100CC0000E94F31280E090E0A0E0B0E08093C601C3
:100CD0009093C701A093C801B093C90123C4C60172
:100CE000B50120E030E040E050E00E94101A882377
:100CF00074F42196EEADFFAD2197EF2B41F40E94E5
:100D0000F31221E030E021963FAF2EAF2197C601CC
:100D1000B50120E030E040E050E00E949B1B181637
:100D20000CF0F5CE6091C6017091C7018091C801A9
:100D30009091C90120E030E048EA52E40E94101A84
:100D400088230CF0E4CE89A99AA9019729F06FAA0B
:100D500078AE89AE9AAE0EC00E940001AA2797FD18
:100D6000A095BA2FBC01CD010E94B21A6FAB78AF2B
:100D700089AF9AAF6091C6017091C7018091C80197
:100D80009091C9010E947F1A7B018C01C601B501B7
:100D90000E947F1A9B01AC01C701B90141E050E0FC
:100DA0000E941D15A9A9BAA9119771F40E9400010A
:100DB000AA2797FDA095BA2FBC01CD010E94B21AB7
:100DC0006FAB78AF89AF9AAF6091C6017091C701E0
:100DD0008091C8019091C90120E030E040E151E4E8
:100DE0000E949B1B18160CF096CE6091C601709164
:100DF000C7018091C8019091C90120E030E040E82E
:100E000051E40E94101A88230CF085CEC601B5016A
:100E100020E030E048E152E40E949B1B18160CF0E1
:100E20007ACEC601B50120E030E04CE252E40E94E7
:100E3000101A88230CF06FCE0E94F3126091C60145
:100E40007091C7018091C8019091C9010E947F1AD9
:100E5000DC01CB016AE270E041E050E020E030E0EC
:100E60000E9469146091C6017091C7018091C80108
:100E70009091C9010E947F1ADC01CB016AE270E007
:100E800040E050E020E030E00E94691400E010E013
:100E900064E0E62E58E0F52E40E9C42E41E0D42E61
:100EA00082E060E00E94111782E991E00E9404173D
:100EB00085B18E2585B985B18F2585B980ED97E0FF
:100EC000F6013197F1F70197D9F70F5F1F4F043102
:100ED000110531F755C4B2E08B16910409F0D8C161
:100EE00060917604709177046E5F7F4F882777FD5D
:100EF0008095982F0E94B21A1B012C016091C803A3
:100F00007091C90363507040882777FD8095982FB2
:100F10000E94B21A6B8F7C8F8D8F9E8F80E090E045
:100F2000A0E0B0E08B8B9C8BAD8BBE8B8B879C87BE
:100F3000AD87BE871E821D822CC0730184016B8920
:100F40007C898D899E8920E030E040E251E40E9456
:100F5000AB192AE037ED43E25CE30E949F1B6B8BE9
:100F60007C8B8D8B9E8BC401B3012B853C854D857D
:100F70005E850E94AC192AE037ED43E25CE30E94F3
:100F80009F1B6B877C878D879E87C701D8013C019B
:100F90004D01A9A9BAA9119761F40E940001AA27DD
:100FA00097FDA095BA2FBC01CD010E94B21A3B015A
:100FB0004C016B857C858D859E852AE037ED43E26B
:100FC0005CE30E949F1B9B01AC016DA57EA58FA5D4
:100FD00098A90E94AC196DA77EA78FA798ABC201F4
:100FE000B1012DA53EA54FA558A90E94AC191B0122
:100FF0002C0120E030E044EA52E40E949B1B1816CA
:101000000CF40AC2C201B10120E030E040E050E03F
:101010000E94101A88230CF4FFC16B897C898D898A
:101020009E892AE037ED43E25CE30E949F1B9B010F
:10103000AC0169A57AA58BA59CA50E94AC1969A7EE
:101040007AA78BA79CA76B8D7C8D8D8D9E8D29A5F6
:101050003AA54BA55CA50E94AB196B8F7C8F8D8F39
:101060009E8F20E030E040E050E00E94101A88237C
:1010700054F4ED81FE81EF2B31F40E94F31221E054
:1010800030E03E832D836B8D7C8D8D8D9E8D0E94F7
:101090007F1A5B016C017A836983C201B1010E94EE
:1010A0007F1A7B018C0121967FAF6EAF2197FB01E8
:1010B000EE0FFF1FE653FC4F80819181A816B90601
:1010C00064F00E94F312C701B50141E050E020E056
:1010D00030E00E947413C7011EC26B8D7C8D8D8D14
:1010E0009E8D20E030E040E050E00E949B1B1816EF
:1010F0000CF023CFC201B10120E030E048EA52E415
:101100000E94101A88230CF018CFE9A9FAA9319788
:1011100019F0730184010CC00E940001AA2797FDF9
:10112000A095BA2FBC01CD010E94B21A7B018C019F
:1011300021968EAD9FAD219769817A8141E050E083
:101140000E941D1529A93AA92130310561F40E9498
:101150000001AA2797FDA095BA2FBC01CD010E94DE
:10116000B21A7B018C01609178047091790461500E
:101170007040882777FD8095982F0E94B21A9B01B6
:10118000AC01C201B1010E949B1B18160CF0D7CE16
:1011900060917804709179046B5F7F4F882777FDA9
:1011A0008095982F0E94B21A9B01AC01C201B10137
:1011B0000E94101A88230CF0C2CE609172047091C4
:1011C000730465507040882777FD8095982F0E94A2
:1011D000B21A9B01AC016B8D7C8D8D8D9E8D0E9412
:1011E0009B1B18160CF0ABCE6091720470917304C7
:1011F000882777FD8095982F0E94B21A9B01AC0139
:101200006B8D7C8D8D8D9E8D0E94101A88230CF025
:1012100096CE0E94F31221968EAD9FAD21976981E3
:101220007A8141E050E020E030E00E947413219682
:101230008EAD9FAD219769817A8140E050E020E03A
:1012400030E00E94741300E010E024E0E22E98E009
:10125000F92E80E9C82E81E0D82E82E060E00E945D
:10126000111785E891E00E94041785B18E2585B994
:1012700085B18F2585B980ED97E0F6013197F1F7BB
:101280000197D9F70F5F1F4F0431110531F778C26D
:1012900033E08316910409F07CC260917804709168
:1012A00079046E5F7F4F882777FD8095982F0E9485
:1012B000B21A6093C6017093C7018093C8019093DE
:1012C000C901609172047091730463507040882763
:1012D00077FD8095982F0E94B21A1B012C0180E0A7
:1012E00090E0A0E0B0E08F87988BA98BBA8B8F83BA
:1012F0009887A987BA871C821B8232C06BAA7CAAF6
:101300008DAA9EAA6F85788989899A8920E030E024
:1013100040E251E40E94AB192AE037ED43E25CE37E
:101320000E949F1B6F87788B898B9A8BC401B301B6
:101330002F81388549855A850E94AC192AE037EDFE
:1013400043E25CE30E949F1B6F83788789879A87BB
:101350002BA93CA94DA95EA9C901DA013C014D01A7
:10136000A9A9BAA9119761F40E940001AA2797FDC3
:10137000A095BA2FBC01CD010E94B21A3B014C01CD
:101380006F81788589859A852AE037ED43E25CE3B1
:101390000E949F1B9B01AC016DA57EA58FA598A9FE
:1013A0000E94AB196DA77EA78FA798AB6091C6016D
:1013B0007091C7018091C8019091C9012DA53EA5EA
:1013C0004FA558A90E94AB196093C6017093C7013D
:1013D0008093C8019093C9016091C6017091C701C3
:1013E0008091C8019091C90120E030E040E050E0D8
:1013F0000E94101A87FD10C06091C6017091C7014C
:101400008091C8019091C90120E030E046EA52E4A1
:101410000E949B1B18161CF40E94F31283C06F8558
:10142000788989899A892AE037ED43E25CE30E9452
:101430009F1B9B01AC0169A57AA58BA59CA50E9469
:10144000AC1969A77AA78BA79CA7C201B10129A5EE
:101450003AA54BA55CA50E94AB191B012C0120E00D
:1014600030E040E050E00E94101A882354F4EB81F1
:10147000FC81EF2B31F40E94F31221E030E03C8339
:101480002B836091C6017091C7018091C801909132
:10149000C9010E947F1ADC01CB01880F991F865376
:1014A0009C4FDC016D917C91882777FD8095982F6A
:1014B0000E94B21A9B01AC01C201B1010E949B1BA8
:1014C00018169CF50E94F312E090C601F090C70137
:1014D0000091C8011091C901C201B1010E947F1A97
:1014E0005B016C01C801B7010E947F1ADC01CB01CE
:1014F000B50141E050E020E030E00E9474136091BB
:10150000C6017091C7018091C8019091C9010E94E4
:101510007F1ADC01CB01B50140E050E020E030E073
:101520000E94741320E030E035C1C201B10120E017
:1015300030E040E050E00E949B1B18160CF0DECE1D
:101540006091C6017091C7018091C8019091C90155
:1015500020E030E048EA52E40E94101A88230CF0A0
:10156000CDCEE9A9FAA9319729F06BAA7CAA8DAA58
:101570009EAA0EC00E940001AA2797FDA095BA2F2F
:10158000BC01CD010E94B21A6BAB7CAB8DAB9EABA4
:10159000A090C601B090C701C090C801D090C90109
:1015A000C201B1010E947F1A7B018C0121967FAF9D
:1015B0006EAF2197C601B5010E947F1ADC01CB01F5
:1015C000B70141E050E00E941D1529A93AA9213038
:1015D000310571F40E940001AA2797FDA095BA2F4A
:1015E000BC01CD010E94B21A6BAB7CAB8DAB9EAB44
:1015F000E090C601F090C7010091C8011091C901A7
:10160000609176047091770461507040882777FD6F
:101610008095982F0E94B21A9B01AC01C801B701B6
:101620000E949B1B18160CF06DCEE090C601F09046
:10163000C7010091C8011091C901609176047091B1
:1016400077046B5F7F4F882777FD8095982F0E94E6
:10165000B21A9B01AC01C801B7010E94101A88237D
:101660000CF050CE6091C8037091C9036350704074
:10167000882777FD8095982F0E94B21A9B01AC01B4
:10168000C201B1010E949B1B18160CF03BCE609169
:10169000C8037091C903882777FD8095982F0E9411
:1016A000B21A9B01AC01C201B1010E94101A882339
:1016B0000CF028CE6091C6017091C7018091C801DD
:1016C0009091C9010E947F1ADC01CB0121966EAD79
:1016D0007FAD219740E050E022E030E00E941D15F0
:1016E0006091C6017091C7018091C8019091C901B4
:1016F0000E947F1ADC01CB0121966EAD7FAD219750
:1017000041E050E020E030E00E9474136091C60197
:101710007091C7018091C8019091C9010E947F1A00
:10172000DC01CB0121966EAD7FAD219740E050E00A
:1017300020E030E00E94741300E010E0A4E0EA2E04
:10174000F8E0FF2EE0E9CE2EE1E0DE2E81E060E061
:101750000E94111782E991E00E94041785B18E253D
:1017600085B985B18F2585B980ED97E0F601319770
:10177000F1F70197D9F70F5F1F4F0431110531F7CA
:101780000E94EB120E94F3120E94241721E030E025
:1017900001C001C0C901C05CDF4F0FB6F894DEBFC5
:1017A0000FBECDBFCF91DF911F910F91FF90EF90B2
:1017B000DF90CF90BF90AF909F908F907F906F9071
:1017C0005F904F903F902F9008952F923F925F929D
:1017D0006F927F928F929F92AF92BF92CF92DF9241
:1017E000EF92FF920F931F93CF93DF93D82E562E35
:1017F0000E9484000E94990080E060E00E9411171E
:101800008FE991E00E94041780E197E220E931E03E
:10181000F9013197F1F70197D9F784E090E069E099
:1018200070E046E050E02AE030E001E010E0E2E065
:10183000EE2EF12C0E944B15DD2009F07DC00F2EFD
:10184000F0E0AF2EF0E0BF2EF0E2CF2EF1E4DF2E7D
:10185000F02DC4E0D0E01AE0812E912C21E0521648
:1018600011F40E9400010E9484008C010E949900E2
:101870003C010130110509F040C02296C831D10564
:1018800074F4C601B50120E030E040E251E40E946A
:10189000AC195B016C010894810891081EC080E0BE
:1018A00090E060E070E048E150E02AE030E000E0E5
:1018B00010E0B2E0EB2EF12C0E944B150F2EF0E061
:1018C000AF2EF0E0BF2EF0E2CF2EF1E4DF2EF02DB0
:1018D000C4E0D0E0AAE08A2E912CB401615070409F
:1018E000AE014E5F5F4FCE012AE030E001E010E034
:1018F000F2E0EF2EF12C0E944B1531E063167104DB
:1019000009F0ACCF80E090E060E070E048E150E0AA
:101910002AE030E000E010E0E2E0EE2EF12C0E9440
:101920004B15C601B5010E947F1ADC01CB010E9454
:10193000B1005B016C01E7C081E0D81609F0E2C09C
:101940000F2EF0E0AF2EF0E0BF2EF0E2CF2EF1E44C
:10195000DF2EF02D84E0882E912CC0E0D0E008E04E
:10196000602E712C1BEF212E1FEF312E91E05916A6
:1019700011F40E9400018091740490917504019704
:1019800009F45DC06091C6017091C7018091C801E2
:101990009091C90120E030E040E251E40E94101A29
:1019A0008823ECF42097D9F4809174049091750405
:1019B000829DB001839D700D929D700D11246F5B0F
:1019C0007F4F81E090E00E94E61722E330E0281B81
:1019D000390B3093C7032093C603C1E0D0E0609178
:1019E000C6017091C7018091C8019091C90120E0A2
:1019F00030E040E751E40E949B1B1816D4F4209776
:101A0000C1F48091740490917504829DB001839D0E
:101A1000700D929D700D11246F5B7F4F81E090E0FF
:101A20000E94E617C2969093C7038093C603C1E055
:101A3000D0E080917404909175040E9754F081E089
:101A400090E064E670E00E94E6179093C7038093ED
:101A5000C6036091C6037091C703882777FD809500
:101A6000982F0E94B21A9B01AC01C601B5010E94D9
:101A7000101A88236CF582E090E0880E991EA4016C
:101A80004E5F5F4FC401B3012AE030E001E010E097
:101A9000B2E0EB2EF12C0E944B1591E0591611F497
:101AA0000E94000188E893E1E0E9F1E03197F1F765
:101AB0000197D1F7C601B50120E030E040E251E4E2
:101AC0000E94AC195B016C010894610871084ECF4B
:101AD000C601B5010E947F1ADC01CB010E94B10052
:101AE0005B016C0180E090E060E070E048E150E074
:101AF0002AE030E000E010E0A2E0EA2EF12C0E94A3
:101B00004B1501C002C0B501C601DF91CF911F91F5
:101B10000F91FF90EF90DF90CF90BF90AF909F908C
:101B20008F907F906F905F903F902F9008952F92AD
:101B30003F924F925F926F927F928F929F92AF925D
:101B4000BF92CF92DF92EF92FF920F931F93DF939A
:101B5000CF93CDB7DEB76B970FB6F894DEBF0FBE4D
:101B6000CDBF8F836887498780E060E00E941117AE
:101B700086EA91E00E94041780E197E220E931E0D3
:101B8000F9013197F1F70197D9F72F81222341F518
:101B90008CE090E065E170E047E250E025E230E063
:101BA00001E010E00E949A150F2EF8ED8F2EFDE057
:101BB0009F2EF5E1AF2EF2E4BF2EF02D0F2EFDED9E
:101BC0004F2EF8EC5F2EFEEA6F2EF1E47F2EF02D03
:101BD0000CE0202E312C87E290E09B8F8A8FBEC0D4
:101BE0009F81913041F587E490E06DE370E047E23A
:101BF00050E025E230E001E010E00E949A150F2E3F
:101C0000F7ED8F2EFDE09F2EF5E1AF2EF2E4BF2E13
:101C1000F02D0F2EF2E94F2EFBE95F2EF4E76F2E29
:101C2000F2E47F2EF02D17E4212E312CA7E2B0E054
:101C3000BB8FAA8F93C0BF81B23069F52090760424
:101C400030907704E2E0F0E02E0E3F1E2091C803B2
:101C50003091C903235030403B8F2A8FB101882730
:101C600077FD8095982F0E94B21A2AEB31E94DE159
:101C700051E40E94AC192B013C01AA8DBB8DBD0122
:101C8000882777FD8095982F0E94B21A29E035E4C5
:101C90004EED5FE34AC0BF81B330E1F00F2EF8EDA7
:101CA0008F2EFDE09F2EF5E1AF2EF2E4BF2EF02D3A
:101CB0000F2EFDED4F2EF8EC5F2EFEEA6F2EF1E4B5
:101CC0007F2EF02DBCE02B2E312CE7E2F0E0FB8FD5
:101CD000EA8F44C0209078043090790422E030E00C
:101CE000220E331E809172049091730403979B8F90
:101CF0008A8FB101882777FD8095982F0E94B21AAC
:101D00002AEB31E94DE151E40E94AB192B013C0172
:101D1000AA8DBB8DBD01882777FD8095982F0E94E5
:101D2000B21A23E135E44EED5FE30E94AB194B019B
:101D30005C01C301B2010E947F1A6B017C01C501E5
:101D4000B4010E947F1A8B019C01C101B6014A8D2A
:101D50005B8D980101E010E00E949A15B885BB23C5
:101D600009F052C1EAE0F0E0FE83ED83C101AA2749
:101D700097FDA095BA2F8A879B87AC87BD878A8DF0
:101D80009B8DAA2797FDA095BA2F8E879F87A88B3A
:101D9000B98B9985913011F40E9400010E94840052
:101DA0008C010E9499009C838B830130110509F0FE
:101DB00014C1C301B2010E947F1A6B017C017A83B6
:101DC0006983C501B4010E947F1A8B019C017B01CC
:101DD000C101B6014A8D5B8D980100E010E00E94C0
:101DE0009A15AD81BE811596BE83AD83A135B1052F
:101DF00024F0EAE0F0E0FE83ED83FF81FF2319F099
:101E0000F23009F06BC0C10169817A814A8D5B8D26
:101E1000970100E010E00E949A152D813E81B901E2
:101E2000882777FD8095982F0E94B21A25E33AEF14
:101E30004EE85CE30E949F1B7B018C01C8010E945D
:101E4000141A5B016C016A857B858C859D850E94D7
:101E5000B21A3B014C01C601B50120E030E040E27E
:101E600051E40E949F1B9B01AC01C401B3010E947D
:101E7000AC192B013C01B701C8010E94221C7B0157
:101E80008C016E857F85888999890E94B21A5B01D1
:101E90006C01C801B70120E030E040E251E40E944B
:101EA0009F1B9B01AC01C601B5010E94AB194B0100
:101EB0005C01C301B2010E947F1A6B017C01C50164
:101EC000B4010E947F1A8B019C01C101B6014A8DA9
:101ED0005B8D980101E010E00E949A153F8131303E
:101EE00019F0333009F079C0C301B2010E947F1AA2
:101EF0006B017C01C501B4010E947F1A8B019C011A
:101F0000C101B6014A8D5B8D980100E010E00E948E
:101F10009A1564EB70E08D819E81681B790B882790
:101F200077FD8095982F0E94B21A25E33AEF4EE88C
:101F30005CE30E949F1B7B018C01C8010E94141A64
:101F40005B016C016A857B858C859D850E94B21A38
:101F50003B014C01C601B50120E030E040E251E414
:101F60000E949F1B9B01AC01C401B3010E94AC19EC
:101F70002B013C01B701C8010E94221C7B018C018E
:101F80006E857F85888999890E94B21A5B016C01F0
:101F9000C801B70120E030E040E251E40E949F1BFD
:101FA0009B01AC01C601B5010E94AB194B015C015C
:101FB000C301B2010E947F1A6B017C01C501B4010B
:101FC0000E947F1A8B019C01C101B6014A8D5B8D75
:101FD000980101E010E00E949A15AB81BC81119735
:101FE00009F0D7CEC301B2010E947F1A6B017C01B8
:101FF000C501B4010E947F1A8B019C01C101B60189
:102000004A8D5B8D980178C1B885B13009F07BC1EC
:102010008091740490917504019739F48AE090E0FE
:1020200060E570E00E94E6171BC0209174043091B7
:1020300075044091740450917504C901880F991F6B
:10204000820F931FBA01660F771F640F751F70957B
:1020500061957F4F645D7F4F8C970E94E6178D9648
:102060009093C5038093C403809174049091750488
:102070000E9754F08AE090E060E570E00E94E61769
:102080009093C5038093C403EAE0F0E0FE83ED8300
:10209000C101AA2797FDA095BA2F8A8B9B8BAC8B89
:1020A000BD8B8A8D9B8DAA2797FDA095BA2F8E8B0D
:1020B0009F8BA88FB98F9985913011F40E940001F0
:1020C0008091C4039091C503AD81BE81A817B90763
:1020D0000CF091C0C301B2010E947F1A6B017C0118
:1020E000C501B4010E947F1A8B019C01C101B60198
:1020F0004A8D5B8D980100E010E00E949A1564EB18
:1021000070E0ED81FE816E1B7F0B882777FD809547
:10211000982F0E94B21A25E33AEF4EE85CE30E9442
:102120009F1B7B018C01C8010E94141A5B016C018A
:102130006A897B898C899D890E94B21A3B014C0176
:10214000C601B50120E030E040E251E40E949F1B4F
:102150009B01AC01C401B3010E94AC192B013C01ED
:10216000B701C8010E94221C7B018C016E897F8906
:10217000888D998D0E94B21A5B016C01C801B7016C
:1021800020E030E040E251E40E949F1B9B01AC0143
:10219000C601B5010E94AB194B015C01F985F13014
:1021A00011F40E940001C301B2010E947F1A6B0169
:1021B0007C01C501B4010E947F1A8B019C01C10101
:1021C000B6014A8D5B8D980101E010E00E949A15DE
:1021D0002985213011F40E94000188E893E1E0E9AB
:1021E000F1E03197F1F70197D1F78D819E81059646
:1021F0009E838D8360CFC301B2010E947F1A6B0161
:102200007C01C501B4010E947F1A8B019C01C101B0
:10221000B6014A8D5B8D980100E010E00E949A158E
:1022200064EB70E0AD81BE816A1B7B0B882777FD74
:102230008095982F0E94B21A25E33AEF4EE85CE3AE
:102240000E949F1B7B018C01C8010E94141A5B0134
:102250006C01B701C8010E94221C3B014C016A8934
:102260007B898C899D890E94B21A7B018C01C601F1
:10227000B50120E030E040E251E40E949F1B9B0149
:10228000AC01C801B7010E94AC190E947F1A5B0122
:102290006C012B016E897F89888D998D0E94B21AFD
:1022A0007B018C01C401B30120E030E040E251E445
:1022B0000E949F1B9B01AC01C801B7010E94AB1992
:1022C0000E947F1A8B019C014B01C101B5014A8D0F
:1022D0005B8D980101E010E00E949A1588E893E177
:1022E00020E931E0F9013197F1F70197D9F7C10100
:1022F000B2014A8D5B8D940100E010E00E949A15B6
:102300008D819E8100C06B960FB6F894DEBF0FBE24
:10231000CDBFCF91DF911F910F91FF90EF90DF9094
:10232000CF90BF90AF909F908F907F906F905F9075
:102330004F903F902F90089580E197E220E931E09F
:10234000F9013197F1F70197D9F70E94241786E236
:1023500062E00E94111783E30E94D91680E197E2A0
:1023600020E931E0F9013197F1F70197D9F70E949F
:10237000241786E262E00E94111782E30E94D916B8
:1023800080E197E220E931E0F9013197F1F7019717
:10239000D9F70E94241786E262E00E94111781E3B8
:1023A0000E94D91680E197E220E931E0F9013197E6
:1023B000F1F70197D9F70E9424170895E1E6F0E0BC
:1023C00080E88083108287E30E94A81687E30E943A
:1023D000A8160E94EB120E94F3120E94241784B1E7
:1023E0008C6084B985B185B9ECE7F0E080818066C6
:1023F0008083EAE7F0E08081876A8083808180645F
:10240000808308958F929F92AF92BF92CF92DF9276
:10241000EF92FF920F931F93CF93DF930E94DE11F1
:102420000F2EF0E08F2EF0E09F2EF0E5AF2EF1E4BE
:10243000BF2EF02DC0E9D1E0109275041092740403
:102440008092C6019092C701A092C801B092C901C2
:102450000E949C1180E197E2FE013197F1F701970C
:10246000D9F70E9445168AE090E06BE270E00E9486
:10247000091685E490E06BE270E00E9409168091F5
:1024800074049091750480FD17C080E060E00E94A4
:1024900011178DEA91E00E94041788E99AE3FE0182
:1024A0003197F1F70197D9F780E060E00E941117AA
:1024B00085EB91E00E94041780917404909175045B
:1024C00062E070E00E94871C019779F480E060E090
:1024D0000E9411178DEB91E00E94041788E99AE39E
:1024E000FE013197F1F70197D9F78091740490912B
:1024F000750462E070E00E94871C61E00E94E50BB9
:102500006B017C0180E060E00E94111781EC91E09A
:102510000E94041780E197E2FE013197F1F70197DD
:10252000D9F78091740490917504209174043091CE
:10253000750462E070E00E94871C482FC90162E0C8
:1025400070E00E94871C682F842F41E00E94970D45
:102550008C0180E060E00E94111781EC91E00E9404
:10256000041780E197E2FE013197F1F70197D9F75F
:10257000809174049091750462E070E00E94871C61
:102580009C01C701B601A80101E010E00E946403AC
:102590006C0180E060E00E94111780E090E060E054
:1025A00070E040E050E020E030E000E010E0E2E0E9
:1025B000EE2EF12C0E944B150E94F31280917404B0
:1025C0009091750401969093750480937404CD28BE
:1025D00009F032CF54CFEAE7F4E0119286E0E23717
:1025E000F807D9F70895E2E7F6E0119288E0EA36B5
:1025F000F807D9F70895CF93DF93C0E0D0E0FE014C
:10260000EE58F94FDE01A658BB4F60818C91682BC4
:1026100081E00E948716219681E0C83FD80779F7AC
:10262000DF91CF910895EF92FF920F931F93F82EB1
:10263000162FE42E022F80E060E00E941117412F38
:1026400046954695469517700023D1F48F2D90E05E
:10265000212F332727FD3095EE2049F0E4E54E0287
:10266000F0011124E80FF91FE658FB4F1BC0E4E509
:102670004E02F0011124E80FF91FE658FB4F24C069
:10268000023069F58F2D90E0212F332727FD3095FB
:10269000EE2091F0E4E54E02F0011124E80FF91F5D
:1026A000EE58F94F81E090E002C0880F991F2A95FB
:1026B000E2F72081282B12C0E4E54E02F00111243C
:1026C000E80FF91FEE58F94F81E090E002C0880F43
:1026D000991F2A95E2F780952081282320831F9156
:1026E0000F91FF90EF9008956F927F928F929F923B
:1026F000AF92BF92CF92DF92EF92FF920F931F9310
:10270000E82EF62E142F022F0E9413130E94FB12A4
:1027100080ED97E020E931E0F9013197F1F7019779
:10272000D9F79E2C9A94892D6F2D412F202F0E942E
:1027300013138E2C8394882D6F2D412F202F0E94F0
:102740001313CF2CCA948E2D6C2D412F202F0E9455
:102750001313AF2CA3948E2D6A2D412F202F0E948E
:1027600013130E94FB1280ED97E020E931E0F9019C
:102770003197F1F70197D9F73EEF732E7E0C872D35
:102780006F2D412F202F0E94131322E0622E6E0C1A
:10279000862D6F2D412F202F0E941313892D6C2D14
:1027A000412F202F0E941313882D6C2D412F202F95
:1027B0000E9413139EEFD92EDF0C8E2D6D2D412F0D
:1027C000202F0E941313892D6A2D412F202F0E9444
:1027D000131382E0B82EBF0C8E2D6B2D412F202FAE
:1027E0000E941313882D6A2D412F202F0E9413134E
:1027F0000E94FB1280ED97E020E931E0F90131976A
:10280000F1F70197D9F78E2D83506F2D412F202F8F
:102810000E9413138E2D8D5F6F2D412F202F0E944C
:102820001313872D6C2D412F202F0E941313862DFB
:102830006C2D412F202F0E941313892D6D2D412FB8
:10284000202F0E941313882D6D2D412F202F0E94C1
:1028500013138DEFF80E8E2D6F2D412F202F0E9418
:102860001313872D6A2D412F202F0E941313892DBA
:102870006B2D412F202F0E94131386E0F80E8E2D12
:102880006F2D412F202F0E941313882D6B2D412F68
:10289000202F0E941313862D6A2D412F202F0E9476
:1028A00013130E94FB1280ED97E020E931E0F9015B
:1028B0003197F1F70197D9F71F910F91FF90EF90A2
:1028C000DF90CF90BF90AF909F908F907F906F9050
:1028D00008958F929F92AF92BF92CF92DF92EF9224
:1028E000FF920F931F93E82EF62E142F022F0E94B3
:1028F00013130E94FB1280ED97E020E931E0F9010B
:102900003197F1F70197D9F7AE2CAA948A2D6F2D44
:10291000412F202F0E941313BE2CB3948B2D6F2DAB
:10292000412F202F0E941313CF2CCA948E2D6C2D73
:10293000412F202F0E9413130E94FB1280ED97E07D
:1029400020E931E0F9013197F1F70197D9F76EEFFE
:10295000862E8E0C882D6F2D412F202F0E94131351
:1029600052E0952E9E0C892D6F2D412F202F0E9415
:1029700013138A2D6C2D412F202F0E9413138B2DA2
:102980006C2D412F202F0E9413134EEFD42EDF0CFD
:102990008E2D6D2D412F202F0E9413130E94FB12AC
:1029A00080ED97E020E931E0F9013197F1F70197E7
:1029B000D9F78E2D83506F2D412F202F0E94131396
:1029C0008E2D8D5F6F2D412F202F0E941313882D88
:1029D0006C2D412F202F0E941313892D6C2D412F18
:1029E000202F0E9413138A2D6D2D412F202F0E941E
:1029F00013138B2D6D2D412F202F0E9413138DEF5C
:102A0000F80E8E2D6F2D412F202F0E9413130E9440
:102A1000FB1280ED97E020E931E0F9013197F1F701
:102A20000197D9F71F910F91FF90EF90DF90CF9012
:102A3000BF90AF909F908F900895CF92DF92EF92CA
:102A4000FF920F931F93E62EC42EE2E7F6E0119259
:102A500098E0EA36F907D9F7082FE2E0DE2ED80E23
:102A600072E0F72EFE0C0AC0802F612F4C2D22E061
:102A70000E9413131F5F1F15B9F70F5F0D1511F09B
:102A80001E2DF9CF0E94FB121F910F91FF90EF9026
:102A9000DF90CF9008953F924F925F926F927F9216
:102AA0008F929F92AF92BF92CF92DF92EF92FF925E
:102AB0000F931F93CF93DF93582E662E302E4E2CFC
:102AC00000E010E0882E9924A42EBB24C62EDD241D
:102AD000E22EFF2410C0662D6C0F872D432D242D70
:102AE0000E9413132196CE018C0D9D1D8E159F05FE
:102AF00094F30F5F1F4FC801880D991D8A159B0520
:102B00002CF4C0E0D0E0752C700EEDCF0E94FB12CB
:102B1000DF91CF911F910F91FF90EF90DF90CF90B9
:102B2000BF90AF909F908F907F906F905F904F90ED
:102B30003F9008953F924F925F926F927F928F9253
:102B40009F92AF92BF92CF92DF92EF92FF920F933C
:102B50001F93CF93DF93C82E462ED42E522E302EA5
:102B6000082F10E0061B110917FF03C010950195EF
:102B70001F4FCD2DD0E0C519D109D7FF03C0D09587
:102B8000C195DF4F4C1420F0B1E08B2E912C03C087
:102B900088248A94982C5D1420F0A1E0AA2EB12CF0
:102BA00003C0AA24AA94BA2C7801EC1AFD0A662460
:102BB00077246C1A7D0A15C08C2D6D2D432D22E0D3
:102BC0000E941313C701880F991F681679061CF419
:102BD000EC1AFD0AC80C801791071CF4E00EF11ED8
:102BE000DA0CC41411F0D51439F70E94FB12DF91EE
:102BF000CF911F910F91FF90EF90DF90CF90BF90FA
:102C0000AF909F908F907F906F905F904F903F908C
:102C10000895CF92DF92EF92FF920F931F93DF936D
:102C2000CF930F92CDB7DEB7F82E962F082F25E061
:102C3000C22EC80E8EEFE82EE60E12E0D12EDE0C6C
:102C40000EC01E2D09C0802F612F41E020E0998326
:102C50000E9413131F5F99811D15A9F70F5F0C15B3
:102C600081F793508F2D8E5F692F41E020E00E9405
:102C700013130E94FB120F90CF91DF911F910F91C0
:102C8000FF90EF90DF90CF900895EF92FF920F9317
:102C90001F93CF93DF9380E060E00E94111710E054
:102CA000812F6BE241E020E00E9413131F5F143577
:102CB000B9F700E010E01AC0CE0181709070E11405
:102CC000F10419F4892B49F402C0019731F4802FE3
:102CD0006C2F41E020E00E9413132196C033D105F0
:102CE00059F70F5F1F4F0435110541F0CCE2D0E0DA
:102CF00031E0E32EF12CE022F122DECF0E94FB1224
:102D0000DF91CF911F910F91FF90EF90089595B1B2
:102D10008295880F807E9F7D982B95B95F9827E0DC
:102D200030E070E08F98CB01022E02C09595879518
:102D30000A94E2F780FF02C02E9A01C02E988F9A63
:102D4000215030408FEF2F3F380761F75F9A089589
:102D50001F93182F579A249A259A269A879A2C9867
:102D60005F9A2C9A80E061E20E948716106880E0EA
:102D7000612F0E94871680E064E00E94871680E041
:102D800064E10E94871680E06CE00E94871680E074
:102D900060E20E94871680E06CE00E94871680E067
:102DA00060E40E94871680E060E80E9487161F9109
:102DB00008950F931F93CF93DF93182F81E060E066
:102DC0000E948716812F90E08097EC01CC0FDD1FC9
:102DD000CC0FDD1FC80FD91FC653DE4F85E0189FEB
:102DE00080011124015D1E4F81E069910E948716C8
:102DF000C017D107C9F781E060E00E948716DF9114
:102E0000CF911F910F910895CF93DF93EC0103C0F1
:102E10000E94D916219688818823D1F7DF91CF911E
:102E200008951F93982F162F843528F4906880E01A
:102E3000692F0E948716163028F4106480E0612FF5
:102E40000E9487161F910895CF93DF93C0E0D0E0D2
:102E500081E060E00E948716219681E0C83FD80794
:102E6000B9F780E060E00E941117DF91CF910895DB
:102E7000DF93CF93CDB7DEB79A8D2B8D898D8823C5
:102E800029F0992311F4822F211181E0CF91DF9154
:102E90000895FC0180E090E0A0E0B0E08487958791
:102EA000A687B787808B918BA28BB38B0895CF9227
:102EB000DF92EF92FF920F931F93CF93DF937C01EA
:102EC000162F072F97FF08C08AEA93E00E94041785
:102ED000F094E194F108F394812F902F9C0169C044
:102EE00069010894C108D10801E010E00AC0C801D6
:102EF000880F991F43E0000F111F4A95E1F7080F53
:102F0000191F2150304099F7C701B8010E94871C52
:102F1000EB016430710581F16530710568F4613051
:102F2000710509F161307105D8F062307105F1F079
:102F300063307105A1F51DC06730710531F168304E
:102F4000710538F465307105D1F06630710539F5D9
:102F500019C068307105E1F06930710501F51BC0D9
:102F60008CEA93E01AC08EEA93E017C080EB93E0FE
:102F700014C082EB93E011C084EB93E00EC086EBAB
:102F800093E00BC088EB93E008C08AEB93E005C0A8
:102F90008CEB93E002C08EEB93E00E940417C09F7D
:102FA000C001C19F900DD09F900D1124E81AF90A1D
:102FB00096012115310509F093CFDF91CF911F9133
:102FC0000F91FF90EF90DF90CF900895EF92FF92D6
:102FD0000F931F938C017B010E94FF1CE01AF10AE2
:102FE000B7010E94871C9C01200F311FC9011F914E
:102FF0000F91FF90EF9008952F923F924F925F9222
:103000006F927F928F929F92AF92BF92CF92DF92F8
:10301000EF92FF920F931F93CF93DF93FC011B015D
:1030200084E290E0918380834F010F2EF0E0AF2E79
:10303000F0E0BF2EF0E0CF2EF0E0DF2EF02D662482
:103040007724E1E04E2E512C63C1C601B50120E08A
:1030500030E040E050E00E94101AF401C081D181BC
:10306000882301F5CF30D1052CF480E090E068E0B2
:1030700070E010C0C832D1054CF080E090E068E00C
:1030800070E00E94E617C81BD90B08C08CEF9FEFB9
:1030900064E070E00E94E617C80FD91FF401D383E3
:1030A000C2831DC1C601B50120E030E040E850E414
:1030B0000E949F1B0E94021C7B018C01BE0188277D
:1030C00077FD8095982F0E94B21AA80197010E945F
:1030D000AC197B018C0120E030E040E751E40E9414
:1030E000101A87FD05C0F1E06F16710409F046C0A3
:1030F0008BE490E064E670E00E94E617AA2797FD53
:10310000A095BA2FBC01CD010E94B21A20E030E098
:1031100048EC52E40E94171AA60195010E949F1BD9
:103120009B01AC015F77C601B5010E94AC1920E09C
:1031300030E040E850E40E949F1B0E94021C7B018B
:103140008C01F40160817181882777FD8095982F2B
:103150000E94B21A9B01AC01C801B7010E94AC19D0
:103160000E947F1AF40173836283F1E06F16710489
:1031700009F4B3C071E0672E712CB1C0C801B7016A
:1031800020E030E04CE152E40E949B1B18162CF02A
:1031900082E06816710409F046C08BE490E064E6B2
:1031A00070E00E94E617AA2797FDA095BA2FBC01F0
:1031B000CD010E94B21A20E030E048EC52E40E94B7
:1031C000171AA60195010E949F1B9B01AC015F7716
:1031D000C601B5010E94AB1920E030E040E850E4A0
:1031E0000E949F1B0E94021C7B018C01F4016081E4
:1031F0007181882777FD8095982F0E94B21A9B01D4
:10320000AC01C801B7010E94AC190E947F1AF401F9
:1032100073836283F2E06F16710409F45EC062E0AA
:10322000662E712C5CC0C601B50120E030E040E0A4
:1032300050E00E94101A88239CF48CE99FEF64E10F
:1032400070E00E94E617AA2797FDA095BA2FBC014F
:10325000CD010E94B21A20E030E048EC52E412C0E6
:103260008CEE9FEF64E670E00E94E617AA2797FDB8
:10327000A095BA2FBC01CD010E94B21A20E030E027
:1032800048EC52EC0E94171AA60195010E949F1B60
:103290009B01AC01C601B5010E94AC1920E030E0F1
:1032A00040E850E40E949F1B0E94021C7B018C019D
:1032B000F40160817181882777FD8095982F0E94A5
:1032C000B21A9B01AC01C801B7010E94AC190E945F
:1032D0007F1AF4017383628302C066247724F401A9
:1032E00062817381219131914F01621B730B882799
:1032F00077FD8095982F0E94B21A20E030E040E8D8
:103300005EE30E949F1B5B016C010894411C511CF1
:10331000421453040CF499CEDF91CF911F910F9179
:10332000FF90EF90DF90CF90BF90AF909F908F90E5
:103330007F906F905F904F903F902F90089584B151
:103340008C6084B980E090E001C00196189BFDCFAD
:103350000E94041D08955058BB27AA270ED0A0C173
:1033600069D130F06ED120F031F49F3F11F41EF49A
:103370005EC10EF4E095E7FB54C1E92FB3D180F3B1
:10338000BA17620773078407950718F071F49EF562
:10339000CBC10EF4E0950B2EBA2FA02D0B01B90175
:1033A00090010C01CA01A0011124FF27591B99F0BB
:1033B000593F50F4503E68F11A16F040A22F232FC7
:1033C000342F4427585FF3CF469537952795A79517
:1033D000F0405395C9F77EF41F16BA0B620B730BBE
:1033E000840BBAF09150A1F0FF0FBB1F661F771F2F
:1033F000881FC2F70EC0BA0F621F731F841F48F4E4
:10340000879577956795B795F7959E3F08F0B3CF69
:103410009395880F08F09927EE0F97958795089553
:10342000DCD008F481E0089514D1E3954AC10CD0B2
:1034300037C107D140F0FED030F021F45F3F19F0E2
:10344000F0C0511172C1F3C04DD198F39923C9F363
:103450005523B1F3951B550BBB27AA27621773079A
:10346000840738F09F5F5F4F220F331F441FAA1F4E
:10347000A9F333D00E2E3AF0E0E830D0915050400E
:10348000E695001CCAF729D0FE2F27D0660F771FBC
:10349000881FBB1F261737074807AB07B0E809F09E
:1034A000BB0B802DBF01FF2793585F4F2AF09E3F33
:1034B000510568F0B6C039C15F3FECF3983EDCF3CC
:1034C000869577956795B795F7959F5FC9F7880FAC
:1034D000911D9695879597F90895E1E0660F771FFE
:1034E000881FBB1F621773078407BA0720F0621B8F
:1034F000730B840BBA0BEE1F88F7E095089504D088
:103500006894B11112C10895F5D088F09F5790F0DA
:10351000B92F9927B751A0F0D1F0660F771F881FF8
:10352000991F1AF0BA95C9F712C0B13081F0FCD0DA
:10353000B1E00895F9C0672F782F8827B85F39F078
:10354000B93FCCF3869577956795B395D9F73EF457
:1035500090958095709561957F4F8F4F9F4F0895FF
:10356000E89409C097FB3EF490958095709561951D
:103570007F4F8F4F9F4F9923A9F0F92F96E9BB27D3
:103580009395F695879577956795B795F111F8CF4F
:10359000FAF4BB0F11F460FF1BC06F5F7F4F8F4FBA
:1035A0009F4F16C0882311F096E911C0772321F0B0
:1035B0009EE8872F762F05C0662371F096E8862F48
:1035C00070E060E02AF09A95660F771F881FDAF79F
:1035D000880F9695879597F90895990F0008550FCC
:1035E000AA0BE0E8FEEF16161706E807F907C0F089
:1035F00012161306E407F50798F0621B730B840B91
:10360000950B39F40A2661F0232B242B252B21F46A
:1036100008950A2609F4A140A6958FEF811D811D0A
:10362000089597F99F6780E870E060E008959FEF44
:1036300080EC089500240A94161617061806090649
:10364000089500240A941216130614060506089518
:10365000EECF50D0E8F3E894E0E0BB279F57F0F0BE
:103660002AED3FE049EC06C0EE0FBB0F661F771F47
:10367000881F28F0B23A62077307840728F0B25A0D
:10368000620B730B840BE3959A9572F7803830F4D4
:103690009A95BB0F661F771F881FD2F79048F5C019
:1036A000092E0394000C11F4882352F0BB0F40F450
:1036B000BF2B11F460FF04C06F5F7F4F8F4F9F4F90
:1036C0000895EF93E0FF06C0A2EA2AED3FE049EC3F
:1036D0005FEB53DEE5DF0F90039401FC9058ECEABA
:1036E000F0E0DFC057FD9058440F551F59F05F3F81
:1036F00071F04795880F97FB991F61F09F3F79F014
:1037000087950895121613061406551FF2CF469595
:10371000F1DF08C0161617061806991FF1CF869517
:103720007105610508940895E894BB2766277727FB
:10373000CB0197F9089551DF08F48FEF08950BD06E
:10374000AFCF78DF28F07DDF18F0952309F069CF3F
:103750006ECF1124EACFC6DFA0F3959FD1F3950F6A
:1037600050E0551F629FF001729FBB27F00DB11D05
:10377000639FAA27F00DB11DAA1F649F6627B00D95
:10378000A11D661F829F2227B00DA11D621F739F7E
:10379000B00DA11D621F839FA00D611D221F749F8C
:1037A0003327A00D611D231F849F600D211D822FD3
:1037B000762F6A2F11249F5750408AF0E1F088231A
:1037C0004AF0EE0FFF1FBB1F661F771F881F915027
:1037D0005040A9F79E3F510570F023CFA6CF5F3F21
:1037E000ECF3983EDCF3869577956795B795F7955A
:1037F000E7959F5FC1F7FE2B880F911D96958795E2
:1038000097F9089577DFE0F09E37D8F09639B8F44D
:103810009E3848F4672F782F8827985FF9CF8695D0
:103820007795679593959539D0F3B62FB1706B0F57
:10383000711D811D20F4879577956795939508C034
:1038400022C073CF9F9305DF0F9007FCEE5F39CF47
:10385000882371F4772321F09850872B762F07C0A7
:10386000662311F499270DC09051862B70E060E01B
:103870002AF09A95660F771F881FDAF7880F9695BA
:10388000879597F908959F3F31F0915020F48795DF
:1038900077956795B795880F911D9695879597F9B8
:1038A00008959F938F937F936F93FF93EF939B0163
:1038B000AC0145DFEF91FF9105D02F913F914F91E2
:1038C0005F913DCFDF93CF931F930F93FF92EF92C2
:1038D000DF927B018C01689405C0DA2EEF013BDF9B
:1038E000FE01E894A5912591359145915591AEF34E
:1038F000EF0143DDFE019701A801DA9479F7DF902B
:10390000EF90FF900F911F91CF91DF91089597FB5A
:10391000092E07260AD077FD04D00CD006D000204F
:103920001AF4709561957F4F0895F6F790958195FB
:103930009F4F0895AA1BBB1B51E107C0AA1FBB1FC5
:10394000A617B70710F0A61BB70B881F991F5A952B
:10395000A9F780959095BC01CD010895A0E0B0E055
:10396000E4EBFCE10C94511DEC01A880B980CA8005
:10397000DB80A114B104C104D10441F484E2A82E77
:1039800089EDB82E8BE5C82E87E0D82EC601B5018B
:103990002DE133EF41E050E00E942E1D27EA31E493
:1039A00040E050E00E940F1D7B018C01C601B50173
:1039B0002DE133EF41E050E00E942E1DCA01B90114
:1039C0002CEE34EF4FEF5FEF0E940F1D6E0D7F1D49
:1039D000801F911F97FF04C0615070408040904845
:1039E000688379838A839B839B013F77C901CDB725
:1039F000DEB7EAE00C946D1D0E94AE1C089580ECC9
:103A000093E00E94AE1C0895A0E0B0E08093C00354
:103A10009093C103A093C203B093C3030895629F20
:103A2000D001739FF001829FE00DF11D649FE00DB6
:103A3000F11D929FF00D839FF00D749FF00D659F17
:103A4000F00D9927729FB00DE11DF91F639FB00D16
:103A5000E11DF91FBD01CF011124089597FB092E27
:103A600005260ED057FD04D04BD00AD0001C38F4E8
:103A700050954095309521953F4F4F4F5F4F08959A
:103A8000F6F790958095709561957F4F8F4F9F4F7A
:103A900008952F923F924F925F926F927F928F92F2
:103AA0009F92AF92BF92CF92DF92EF92FF920F93CD
:103AB0001F93CF93DF93CDB7DEB7CA1BDB0B0FB6D7
:103AC000F894DEBF0FBECDBF09942A883988488894
:103AD0005F846E847D848C849B84AA84B984C8842A
:103AE000DF80EE80FD800C811B81AA81B981CE0F21
:103AF000D11D0FB6F894DEBF0FBECDBFED01089506
:103B0000A1E21A2EAA1BBB1BFD010DC0AA1FBB1FE1
:103B1000EE1FFF1FA217B307E407F50720F0A21B53
:103B2000B30BE40BF50B661F771F881F991F1A94C0
:103B300069F760957095809590959B01AC01BD01EA
:083B4000CF010895F894FFCFB6
:103B48003E3E3E003E3E20003E2020002020200039
:103B58003C2020003C3C20003C3C3C004D454E5560
:103B68000031207620310031207620414900312073
:103B780076204149202B7700312076204149202B9F
:103B88006D002020202020202020202020200053ED
:103B9800636F7263686564310045617274680052CE
:103BA80065626563636100486F7070696E67006E77
:103BB80038333134323137005354415254202020A5
:103BC8004D454E550054414E4B20312057494E53D8
:103BD800210054414E4B20322057494E532100506A
:103BE8006F7765723A00416E676C653A00506C6198
:103BF8007965723A00202020202020200041493A8F
:103C080000536574210000005041000000000000CE
:103C1800005F00000007000700147F147F14242AA7
:103C28007F2A12231308646236495522500005037F
:103C38000000001C2241000041221C0014083E081C
:103C48001408083E08080050300000080808080852
:103C5800006060000020100804023E5149453E0003
:103C6800427F400042615149462141454B31181479
:103C7800127F1027454545393C4A494930017109A9
:103C880005033649494936064949291E0036360092
:103C980000005636000008142241001414141414AD
:103CA80000412214080201510906324979413E7E39
:103CB8001111117E7F494949363E414141227F41D8
:103CC80041221C7F494949417F090909013E41496F
:103CD800497A7F0808087F00417F41002040413F22
:103CE800017F081422417F404040407F020C027F40
:103CF8007F0408107F3E4141413E7F090909063E85
:103D08004151215E7F091929464649494931010136
:103D18007F01013F4040403F1F2040201F3F403867
:103D2800403F631408146307087008076151494548
:103D380043007F41410002040810200041417F00F8
:103D480004020102044040404040000102040020F7
:103D5800545454787F4844443838444444203844C0
:103D680044487F3854545418087E0901020C5252B2
:103D7800523E7F0804047800447D40002040443DC2
:103D8800007F1028440000417F40007C041804781C
:103D98007C0804047838444444387C141414080813
:103DA8001414187C7C080404084854545420043F14
:103DB8004440203C4040207C1C2040201C3C40309B
:103DC800403C44281028440C5050503C4464544C07
:103DD80044000836410000007F000000413608001A
:103DE800100808100878464146782D003000310048
:103DF800320033003400350036003700380039000F
:043E080001000000B5
:00000001FF
