:100000000C9456000C9460000C9460000C946000FA
:100010000C9460000C9460000C9460000C946000E0
:100020000C9460000C9460000C9460000C946000D0
:100030000C9460000C9460000C9460000C946000C0
:100040000C9460000C9460000C9460000C946000B0
:100050000C9460000C9460000C9460000C946000A0
:100060000C9460000C9460000C9460000C94600090
:100070000C9460000C9460000C9460000C94600080
:100080000C9460000C9460000C9460000C94600070
:100090000C9460000C9460000C9460000C94600060
:1000A0000C9460000C9460000C94600011241FBE3E
:1000B000CFEFDAE0DEBFCDBF0E94C5000C94E000B8
:1000C0000C940000ECE7F0E0808180668083EAE732
:1000D000F0E08081816880830895882321F08091F9
:1000E0007C00816003C080917C008E7F80937C00C7
:1000F00080917A00806480937A0080917A0084FFF6
:10010000FCCF8091790090917A00906190937A0071
:10011000089584B1876084B9289A8CB581658CBDB7
:100120008DB581608DBD0895FC01189840E050E0C8
:1001300024E030E0622FCF01022E02C09595879512
:100140000A94E2F78EBD0DB407FEFDCF8EB590E0A8
:1001500002C0880F991F6A95E2F7482B592B24504B
:1001600030408FEF2C3F380729F7189ACA010895BD
:10017000ECE7F0E0808180668083EAE7F0E0808150
:10018000816880830E94890008950F931F930E94C5
:10019000B80081E00E946D00082F80E00E946D0091
:1001A000112707FD109594E0000F111F9A95E1F7B4
:1001B000992787FD9095802B912B0E949400E9CF81
:0401C000F894FFCFE1
:00000001FF
