:100000000C9456000C9460000C9460000C946000FA
:100010000C9460000C9460000C9460000C946000E0
:100020000C9460000C9460000C9460000C946000D0
:100030000C9460000C9460000C9460000C946000C0
:100040000C9460000C9460000C9460000C946000B0
:100050000C9460000C9460000C9460000C946000A0
:100060000C9460000C9460000C9460000C94600090
:100070000C9460000C9460000C9460000C94600080
:100080000C9460000C9460000C9460000C94600070
:100090000C9460000C9460000C9460000C94600060
:1000A0000C9460000C9460000C94600011241FBE3E
:1000B000CFEFDAE0DEBFCDBF0E946C000C949E0053
:1000C0000C94000080B3836080BB81B381BB239A12
:1000D0008CB580648CBD08950E94620070E060E081
:1000E000F1E0E2E024E030E00DB407FEFDCF8EB594
:1000F00090E0022E02C0880F991F0A94E2F7482B65
:10010000592B245030408FEF2C3F380769F7CA0134
:1001100024E0959587952A95E1F7781729F481B31E
:100120008F2781BB70E001C07F5F641729F481B322
:100130008E2781BB60E0D6CF6F5FD4CFF894FFCF1E
:00000001FF
