:100000000C9456000C9460000C9460000C946000FA
:100010000C9460000C9460000C9460000C946000E0
:100020000C9460000C9460000C9460000C946000D0
:100030000C9460000C9460000C9460000C946000C0
:100040000C9460000C9460000C9460000C946000B0
:100050000C9460000C9460000C9460000C946000A0
:100060000C9460000C9460000C9460000C94600090
:100070000C9460000C9460000C9460000C94600080
:100080000C9460000C9460000C9460000C94600070
:100090000C9460000C9460000C9460000C94600060
:1000A0000C9460000C9460000C94600011241FBE3E
:1000B000CFEFDAE0DEBFCDBF0E9425010C945001E6
:1000C0000C940000ECE7F0E0808180668083EAE732
:1000D000F0E08081816880830895882321F08091F9
:1000E0007C00816003C080917C008E7F80937C00C7
:1000F00080917A00806480937A0080917A0084FFF6
:10010000FCCF8091790090917A00906190937A0071
:10011000089584B1876084B9289A8CB581658CBDB7
:100120008DB581608DBD0895FC01189840E050E0C8
:1001300024E030E0622FCF01022E02C09595879512
:100140000A94E2F78EBD0DB407FEFDCF8EB590E0A8
:1001500002C0880F991F6A95E2F7482B592B24504B
:1001600030408FEF2C3F380729F7189ACA010895BD
:1001700081E190E80E94940089E192E80E94940055
:1001800088E493EA0E94940081E296EC0E94940035
:1001900084E995E90E9494008BEE92EC0E94940011
:1001A0008BE79AEC0E94940084ED9EEC0E949400F0
:1001B00087EB94EC0E94940086E598E90E949400F5
:1001C00082E09CEC0E94940008954899FECF80E064
:1001D00090EB0E94940008954899FECF992787FDDF
:1001E0009095986B0E9494000895823549F084356B
:1001F00071F481E990E80E94940089E792E80DC0CB
:1002000081E590E80E94940089E992E806C081E1C6
:1002100090E80E94940089E192E80E949400089579
:100220008AB183608AB98BB183608BB9ECE7F0E067
:10023000808180668083EAE7F0E080818168808346
:100240000E9489000E94B80008950F931F93CF93D6
:10025000DF930E941001C0E0D0E082E50E94F5002B
:1002600008C00E94E500C82FDD27C7FDD095CC74DB
:10027000D0702097B1F38CE40E94F50081E00E94D9
:100280006D00082F80E00E946D00182F84E50E9409
:10029000F500802F0E94EC00812F0E94EC00DDCF42
:0402A000F894FFCF00
:00000001FF
