:100000000C9456000C9460000C9460000C946000FA
:100010000C9460000C9460000C9460000C946000E0
:100020000C9460000C9460000C9460000C946000D0
:100030000C9460000C9460000C9460000C946000C0
:100040000C9460000C9460000C9460000C946000B0
:100050000C9460000C9460000C9460000C946000A0
:100060000C9460000C9460000C9460000C94600090
:100070000C9460000C9460000C9460000C94600080
:100080000C9460000C9460000C9460000C94600070
:100090000C9460000C9460000C9460000C94600060
:1000A0000C9460000C9460000C94600011241FBE3E
:1000B000CFEFDAE0DEBFCDBF0E9499000C94D900EB
:1000C0000C940000ECE7F0E0808180668083EAE732
:1000D000F0E08081856880830895FFCF86E084B951
:1000E00080E58CBD08958EBD0DB407FEFDCF08954B
:1000F0001EBC0DB407FEFDCF8EB50895089508957A
:100100001EBC0DB407FEFDCF8EB50895089583E0A3
:100110008AB98BB9ECE7F0E0808180668083EAE7FA
:10012000F0E080818568808386E084B980E58CBDBD
:1001300008950E9487001EBC0DB407FEFDCF8EB54A
:10014000FFCF772767FD7095660F771F660F771FC4
:100150006D5F7F4F27E030E0E82FFF27E7FDF09548
:10016000A1E0B0E0CF01062E02C0959587950A94D4
:10017000E2F780FF08C0CD01022E02C0880F991F50
:100180000A94E2F70BC021503040CD01022E02C08C
:10019000880F991F0A94E2F72F5F3F4F482761505D
:1001A0007040225030408FEF2F3F3807D9F6842F10
:0601B0000895F894FFCF52
:00000001FF
