:100000000C9456000C9460000C9460000C946000FA
:100010000C9460000C9460000C9460000C946000E0
:100020000C9460000C9460000C9460000C946000D0
:100030000C9460000C9460000C9460000C946000C0
:100040000C9460000C9460000C9460000C946000B0
:100050000C9460000C9460000C9460000C946000A0
:100060000C9460000C9460000C9460000C94600090
:100070000C9460000C9460000C9460000C94600080
:100080000C9460000C9460000C9460000C94600070
:100090000C9460000C9460000C9460000C94600060
:1000A0000C9460000C9460000C94600011241FBE3E
:1000B000CFEFDAE0DEBFCDBF0E9420010C944B01F0
:1000C0000C940000ECE7F0E0808180668083EAE732
:1000D000F0E08081856880830895882321F48091F1
:1000E0007C008E7F03C080917C00826080937C00C6
:1000F00080917A00806480937A0080917A0084FDF8
:10010000FCCF80917900089584B1876084B9289AE2
:100110008CB581658CBD8DB581608DBD0895FC0168
:10012000189840E050E024E030E0622FCF01022E2A
:1001300002C0959587950A94E2F78EBD0DB407FE2F
:10014000FDCF8EB590E002C0880F991F6A95E2F747
:10015000482B592B245030408FEF2C3F380729F77C
:10016000189ACA01089581E190E80E948F0089E100
:1001700092E80E948F0088E493EA0E948F0081E257
:1001800096EC0E948F0084E995E90E948F008BEE27
:1001900092EC0E948F008BE79AEC0E948F0084ED16
:1001A0009EEC0E948F0087EB94EC0E948F0086E506
:1001B00098E90E948F0082E09CEC0E948F000895D5
:1001C0004899FECF80E090EB0E948F0008954899F7
:1001D000FECF992787FD9095986B0E948F00089518
:1001E000823549F0843571F481E990E80E948F00EE
:1001F00089E792E80DC081E590E80E948F0089E9C7
:1002000092E806C081E190E80E948F0089E192E8BF
:100210000E948F0008958AB183608AB98BB1836090
:100220008BB9ECE7F0E0808180668083EAE7F0E05C
:100230008081856880830E9484000E94B3000895B5
:100240000F931F93CF93DF930E940B01C0E0D0E088
:1002500082E50E94F00008C00E94E000C82FDD2760
:10026000C7FDD095CC74D0702097B1F38CE40E9478
:10027000F00081E00E946D00082F80E00E946D0078
:10028000182F84E50E94F000802F0E94E700812F44
:0A0290000E94E700DDCFF894FFCFD5
:00000001FF
