:100000000C9456000C9460000C9460000C946000FA
:100010000C9460000C9460000C9460000C946000E0
:100020000C9460000C9460000C9460000C946000D0
:100030000C9460000C9460000C9460000C946000C0
:100040000C9460000C9460000C9460000C946000B0
:100050000C9460000C9460000C9460000C946000A0
:100060000C9460000C9460000C9460000C94600090
:100070000C9460000C9460000C9460000C94600080
:100080000C9460000C9460000C9460000C94600070
:100090000C9460000C9460000C9460000C94600060
:1000A0000C9460000C9460000C94600011241FBE3E
:1000B000CFEFDAE0DEBFCDBF0E9499000C94CB00F9
:1000C0000C940000ECE7F0E0808180668083EAE732
:1000D000F0E08081816880830895882321F08091F9
:1000E0007C00816003C080917C008E7F80937C00C7
:1000F00080917A00806480937A0080917A0084FFF6
:10010000FCCF8091790090917A00906190937A0071
:10011000089584B1836084B985B185B9ECE7F0E0D6
:10012000808180668083EAE7F0E080818168808357
:100130000895CF92DF92FF920F931F93DF93CF9397
:100140000F92CDB7DEB70E94890010E000E092E088
:10015000F92E80E4C82E8FE1D82E81E00E946D0038
:10016000898380E00E946D00282F8981811731F4F6
:1001700085B191E0892785B910E001C01F5F201784
:1001800029F485B18F2585B900E001C00F5FC60154
:0A0190000197F1F7E2CFF894FFCFDA
:00000001FF
