:100000000C9456000C9460000C9460000C946000FA
:100010000C9460000C9460000C9460000C946000E0
:100020000C9460000C9460000C9460000C946000D0
:100030000C9460000C9460000C9460000C946000C0
:100040000C9460000C9460000C9460000C946000B0
:100050000C9460000C9460000C9460000C946000A0
:100060000C9460000C9460000C9460000C94600090
:100070000C9460000C9460000C9460000C94600080
:100080000C9460000C9460000C9460000C94600070
:100090000C9460000C9460000C9460000C94600060
:1000A0000C9460000C9460000C94600011241FBE3E
:1000B000CFEFDAE0DEBFCDBF0E940E010C94370116
:1000C0000C94000081B3836081BBECE7F0E0808199
:1000D00080668083EAE7F0E080818168808308950C
:1000E000882321F080917C00816003C080917C0096
:1000F0008E7F80937C0080917A00806480937A0068
:1001000080917A0084FFFCCF8091790090917A00F1
:10011000906190937A00089584B1876084B9289A99
:100120008CB581658CBD8DB581608DBD0895AC01A8
:10013000189821E0822F880F880F880FBA0102C01B
:10014000769567958A95E2F76EBD0DB407FEFDCFF3
:100150008EB52150EFCF81E190E80E94970089E1B0
:1001600092E80E94970088E493EA0E94970081E257
:1001700096EC0E94970084E995E90E9497008BEE27
:1001800092EC0E9497008BE79AEC0E94970084ED16
:100190009EEC0E94970087EB94EC0E94970086E506
:1001A00098E90E94970082E09CEC0E9497000895D5
:1001B0004899FECF80E090EB0E94970008954899FF
:1001C000FECF90E0986B0E9497000895823549F029
:1001D000843571F481E990E80E94970089E792E8FC
:1001E0000DC081E590E80E94970089E992E806C079
:1001F00081E190E80E94970089E192E80E949700CF
:1002000008958AB183608AB98BB183608BB90E94EB
:1002100062000E948C000E94AB0008950F931F9310
:10022000CF93DF930E940101C0E0D0E082E50E94FD
:10023000E60006C00E94D800C82FD0E0C574D07078
:100240002097C1F385E40E94E60081E00E947000DF
:10025000082F80E00E947000182F84E50E94E600BD
:10026000802F0E94DF00812F0E94DF00DFCFF894F3
:02027000FFCFBE
:00000001FF
