:100000000C94B6000C94C8000C94C8000C94C80062
:100010000C94C8000C94C8000C94C8000C94C80040
:100020000C94C8000C94C8000C9441010C948101FC
:100030000C94C8000C94C8000C94C8000C94C80020
:100040000C94C8000C94C8000C94C8000C94C80010
:100050000C94C8000C94C8000C94C8000C94C80000
:100060000C94C8000C94C8000C94C8000C94C800F0
:100070000C94C8000C94C8000C94C8000C94C800E0
:100080000C94C8000C94C8000C94C8000C94C800D0
:100090000C94C8000C94C8000C94C8000C94C800C0
:1000A0000C94C8000C94C8000C94C8000A00090005
:1000B00000010000E7001200020000F90022002207
:1000C00000001B0115002100000B010900030000C6
:1000D00030010401030904340114020309044A0134
:1000E00020000001C126001201000200000020C013
:1000F0001679040001010200010902220001010039
:10010000C0320904000001030000000921110100B0
:1001100001221500070583032000010631FF097441
:10012000A1537508150026FF00952009758102C0AE
:1001300004030904140359006F00750072002000C5
:100140004E0061006D0065000000200359006F0043
:10015000750072002000550053004200200044004A
:1001600065007600690063006500000011241FBE71
:10017000CFEFDAE0DEBFCDBF11E0A0E0B1E001C01B
:100180001D92A330B107E1F70E9447030C946D0361
:100190000C94000081E08093D70080EA8093D8001F
:1001A00082E189BD09B400FEFDCF80E98093D800CB
:1001B0001092E000109200018CE08093E2007894AD
:1001C0000895809100010895482F809100018823AF
:1001D00009F43EC02FB7F89483E08093E900809142
:1001E0000201882341F08091E80085FD02C02FBF05
:1001F00012C0109202019091E4009C5F33E0809164
:10020000E80085FD13C02FBF8091E400891729F411
:1002100081E0809302018FEF08958091000188238F
:10022000B9F02FB7F8943093E900E9CF4093F1008B
:100230008091E80085FD06C08AE38093E800109273
:10024000010103C082E0809301012FBF80E0089587
:100250008FEF08959FB7F89480910101882379F07A
:1002600083E08093E90002C01092F1008091E800E1
:1002700085FDFACF8AE38093E800109201019FBFC9
:1002800008951F920F920FB60F9211248F939F9390
:100290008091E1001092E100982F83FF0FC010922F
:1002A000E90081E08093EB001092EC0082E2809301
:1002B000ED0088E08093F0001092000192FF1AC0D8
:1002C000809100018823B1F080910101882391F091
:1002D000815080930101882369F483E08093E900D1
:1002E00002C01092F1008091E80085FDFACF8AE308
:1002F0008093E8009F918F910F900FBE0F901F90F9
:1003000018951F920F920FB60F9211242F933F93BF
:100310004F935F936F937F938F939F93AF93BF930D
:10032000CF93DF93EF93FF931092E9008091E80061
:1003300083FF2CC14091F1003091F1008091F100D8
:10034000A82FB0E02091F100922F80E0A82BB92BCC
:100350008091F100682F70E02091F100922F80E0F1
:10036000682B792B8091F100C82FD0E02091F1000B
:10037000922F80E0C82BD92B82EF8093E800363093
:1003800009F056C027EB30E0A90145505040F90173
:100390003797859194918A179B07E1F4FA0185912B
:1003A000949186179707B1F49A012E5F3F4FF90198
:1003B000659174912E5F3F4FF9012491CE01CF3F9B
:1003C000D10519F010F08FEF90E0422F821758F40A
:1003D000482F09C0295F3F4F495F5F4FF0E0283E3B
:1003E0003F07A9F6D3C05EEF8091E800282F30E0E8
:1003F000C90185709070892BB9F322FDCAC0342FD2
:10040000413208F030E2CB01232F06C0FC010196F7
:10041000E491E093F10021502223C1F7630F711D95
:10042000431B5093E8004423F9F63032E9F2B1C09F
:10043000353061F48EEF8093E8008091E80080FF12
:10044000FCCF8A2F80688093E300A3C0393031F558
:10045000442309F09BC0A09300018EEF8093E80035
:1004600081EE90E021E02093E900FC010196E49107
:10047000E093EB00EE2369F0AC014F5F5F4FFC01AE
:1004800084918093EC00CA010196FA013491309373
:10049000ED002F5F253039F78EE14DC0383061F423
:1004A000403809F073C08091E80080FFFCCF809154
:1004B00000018093F1001BC03323E9F48091E80030
:1004C00080FFFCCF423811F080E00DC06093E9005E
:1004D0008091EB0090E025E0969587952A95E1F7CD
:1004E00081701092E9008093F1001092F1008EEF7C
:1004F0008093E8004EC0313019F0333009F046C027
:100500004230F1F4AB2BE1F4262F2F77822F81506C
:100510008430B0F48EEF8093E8002093E90033300C
:10052000A9F189E18093EB0081E090E002C0880F9F
:10053000991F2A95E2F78093EA001092EA0029C0F9
:10054000313021F5413A11F5672B01F54C2F5EEF63
:100550008091E800282F30E0C90185709070892BC8
:10056000B9F322FD16C0942F413208F090E2892F92
:1005700003C01092F10081508823D9F7491B509392
:10058000E800442329F7903219F303C081E28093F5
:10059000EB00FF91EF91DF91CF91BF91AF919F91D0
:1005A0008F917F916F915F914F913F912F910F901C
:1005B0000FBE0F901F9018951F93CF93DF93EC0100
:1005C000FE0121961491112349F01A3019F48DE09F
:1005D0000E94E400812F0E94E400F2CFDF91CF91CE
:1005E0001F910895982F8A3010F087E301C080E3AF
:1005F000890F0E94E40008951F93182F82958F7031
:100600000E94F202812F8F700E94F2021F910895C2
:100610001F93182F892F0E94FC02812F0E94FC0239
:100620001F910895EEE7F0E0808183608083ECE71E
:10063000F0E0808180668083EAE7F0E08081816875
:1006400080830895882321F080917C00816003C01D
:1006500080917C008E7F80937C0080917A00806402
:1006600080937A0080917A0084FFFCCF80917A0099
:10067000806480937A0080917A0084FFFCCF80911F
:10068000790008950E94CA000E94120308950F93F2
:100690001F93CF93DF930E944203C0E9D1E081E032
:1006A0000E942203182F80E00E942203082F812F2E
:1006B0000E94FC028EEA90E00E94DC02802F0E94E1
:1006C000FC028CEA90E00E94DC0288E893E1FE01E3
:0E06D0003197F1F70197D9F7E2CFF894FFCFF9
:00000001FF
