:100000000C9456000C9460000C9460000C946000FA
:100010000C9460000C9460000C9460000C946000E0
:100020000C9460000C9460000C9460000C946000D0
:100030000C9460000C9460000C9460000C946000C0
:100040000C9460000C9460000C9460000C946000B0
:100050000C9460000C9460000C9460000C946000A0
:100060000C9460000C9460000C9460000C94600090
:100070000C9460000C9460000C9460000C94600080
:100080000C9460000C9460000C9460000C94600070
:100090000C9460000C9460000C9460000C94600060
:1000A0000C9460000C9460000C94600011241FBE3E
:1000B000CFEFDAE0DEBFCDBF0E94D7000C94F00096
:1000C0000C940000EEE7F0E0808183608083ECE731
:1000D000F0E0808180668083EAE7F0E080818168DB
:1000E00080830895882319F0813051F404C08091F1
:1000F0007C00816003C080917C008E7F80937C00B7
:1001000080917A00806480937A0080917A0084FFE5
:10011000FCCF80917A00806480937A0080917A008D
:1001200084FFFCCF809179000895882319F08130F5
:1001300089F40BC084B1876084B9289A8CB5816535
:100140008CBD8DB581608DBD0895239A289A8CB59C
:1001500080648CBD089528989EBD0DB407FEFDCF28
:100160003EB58EBD0DB407FEFDCF2EB5289A932F58
:1001700080E030E0282B392BC90108951899FECF73
:100180009EBD0DB407FEFDCF3EB58EBD0DB407FE7E
:10019000FDCF2EB5932F80E030E0282B392BC901FD
:1001A00008950E94620081E00E9495000895EF92F8
:1001B000FF921F93CF93DF930E94D10081E00E94B2
:1001C0007200182F80E00E947200D12FC0E090E0F2
:1001D0008C2B9D2BE82AF92AC7010E94AB00EECF99
:0401E000F894FFCFC1
:00000001FF
